{
  "contractName": "Voting",
  "abi": [
    {
      "inputs": [
        {
          "name": "candidateNames",
          "type": "bytes32[]"
        }
      ],
      "payable": false,
      "stateMutability": "nonpayable",
      "type": "constructor"
    },
    {
      "constant": true,
      "inputs": [
        {
          "name": "candidate",
          "type": "bytes32"
        }
      ],
      "name": "getVotingResultForCandidate",
      "outputs": [
        {
          "name": "",
          "type": "uint8"
        }
      ],
      "payable": false,
      "stateMutability": "view",
      "type": "function"
    },
    {
      "constant": false,
      "inputs": [
        {
          "name": "candidate",
          "type": "bytes32"
        }
      ],
      "name": "voteForCandidate",
      "outputs": [],
      "payable": false,
      "stateMutability": "nonpayable",
      "type": "function"
    },
    {
      "constant": true,
      "inputs": [
        {
          "name": "candidate",
          "type": "bytes32"
        }
      ],
      "name": "isValidCandidate",
      "outputs": [
        {
          "name": "",
          "type": "bool"
        }
      ],
      "payable": false,
      "stateMutability": "view",
      "type": "function"
    },
    {
      "constant": true,
      "inputs": [
        {
          "name": "voter",
          "type": "address"
        }
      ],
      "name": "isValidVoter",
      "outputs": [
        {
          "name": "",
          "type": "bool"
        }
      ],
      "payable": false,
      "stateMutability": "view",
      "type": "function"
    }
  ],
  "bytecode": "0x608060405234801561001057600080fd5b50604051610496380380610496833981018060405281019080805182019291905050508060009080519060200190610049929190610050565b50506100c8565b828054828255906000526020600020908101928215610092579160200282015b82811115610091578251829060001916905591602001919060010190610070565b5b50905061009f91906100a3565b5090565b6100c591905b808211156100c15760008160009055506001016100a9565b5090565b90565b6103bf806100d76000396000f300608060405260043610610062576000357c0100000000000000000000000000000000000000000000000000000000900463ffffffff16806365a34bd2146100675780638c1d9f30146100b2578063cc9ab267146100fb578063d25b11e01461012c575b600080fd5b34801561007357600080fd5b506100966004803603810190808035600019169060200190929190505050610187565b604051808260ff1660ff16815260200191505060405180910390f35b3480156100be57600080fd5b506100e160048036038101908080356000191690602001909291905050506101b9565b604051808215151515815260200191505060405180910390f35b34801561010757600080fd5b5061012a6004803603810190808035600019169060200190929190505050610218565b005b34801561013857600080fd5b5061016d600480360381019080803573ffffffffffffffffffffffffffffffffffffffff1690602001909291905050506102f0565b604051808215151515815260200191505060405180910390f35b600060026000836000191660001916815260200190815260200160002060009054906101000a900460ff169050919050565b600080600090505b60008054905081101561020d5782600019166000828154811015156101e257fe5b90600052602060002001546000191614156102005760019150610212565b80806001019150506101c1565b600091505b50919050565b610221816101b9565b151561022c57600080fd5b610235336102f0565b151561024057600080fd5b600160026000836000191660001916815260200190815260200160002060008282829054906101000a900460ff160192506101000a81548160ff021916908360ff16021790555060013390806001815401808255809150509060018203906000526020600020016000909192909190916101000a81548173ffffffffffffffffffffffffffffffffffffffff021916908373ffffffffffffffffffffffffffffffffffffffff1602179055505050565b600080600090505b600180549050811015610388578273ffffffffffffffffffffffffffffffffffffffff1660018281548110151561032b57fe5b9060005260206000200160009054906101000a900473ffffffffffffffffffffffffffffffffffffffff1673ffffffffffffffffffffffffffffffffffffffff16141561037b576000915061038d565b80806001019150506102f8565b600191505b509190505600a165627a7a7230582008ad5fc1d6bbb91524e9eeba59a707634cffac560408ca038cfb7a936548fff30029",
  "source": "pragma solidity ^0.4.18;\n\ncontract Voting {\n  // list all the candidates\n  bytes32[] private candidates;\n\n  // list all the voters\n  address[] private voters;\n\n  // hashmap to get the votes d\n  mapping (bytes32 => uint8) private votesReceived;\n\n  // Constructor for names of candidates standing in election\n  function Voting(bytes32[] candidateNames) public {\n    candidates = candidateNames;\n  }\n\n  function getVotingResultForCandidate(bytes32 candidate) view public returns (uint8) {\n    return votesReceived[candidate];\n  }\n\n  function voteForCandidate(bytes32 candidate) public {\n    // to check if candidate is legit\n    require(isValidCandidate(candidate));\n    require(isValidVoter(msg.sender));\n\n    votesReceived[candidate] += 1;\n    voters.push(msg.sender);\n  }\n\n  // for verifying if candidate is legit as well as the vote\n  function isValidCandidate(bytes32 candidate) view public returns (bool) {\n    for(uint i = 0; i < candidates.length; i++) {\n      if (candidates[i] == candidate) {\n        return true;\n      }\n    }\n    return false;\n  }\n\n  function isValidVoter(address voter) view public returns (bool) {\n    for(uint i = 0; i < voters.length; i++) {\n      if (voters[i] == voter) {\n        return false;\n      }\n    }\n    return true;\n  }\n}\n",
  "sourcePath": "/home/mario/College/tesis/FIBCO/contracts/voting.sol",
  "compiler": {
    "name": "solc",
    "version": "0.4.24+commit.e67f0147.Emscripten.clang"
  },
  "schemaVersion": "2.0.1",
  "updatedAt": "2018-08-16T04:44:04.960Z"
}